:100000000C9474000C9495000C9495000C9495003D
:100010000C9495000C9495000C9495000C9495000C
:100020000C9495000C9495000C9495000C949500FC
:100030000C9495000C9495000C9495000C949500EC
:100040000C9495000C9495000C9495000C949500DC
:100050000C9495000C9495000C9495000C949500CC
:100060000C9495000C9441010C9411010C94950092
:100070000C9495000C9495000C9495000C949500AC
:100080000C9495000C9495000C9495000C9495009C
:100090000C9495000C9495000C9495000C9495008C
:1000A0000C9495000C9495000C9495000C9495007C
:1000B0000C9495000C9495000C9495000C9495006C
:1000C0000C9495000C9495000C9495000C9495005C
:1000D0000C9495000C9495000C94D8000C94A800F6
:1000E0000C9495000C94970011241FBECFEFD1E221
:1000F000DEBFCDBF00E00CBF12E0A0E0B2E0EEE654
:10010000FEE000E00BBF02C007900D92A23EB107D7
:10011000D9F724E0A2EEB2E001C01D92A63FB207DB
:10012000E1F70E947A010C9435070C940000CF93FC
:10013000C82F8A3019F48DE00E9497008091300119
:1001400085FFFCCFC093360180E090E0CF91089509
:100150001F920F920FB60F9211240BB60F928F932E
:100160009F93EF93FF939091EB048091EA0498178B
:1001700079F08091EA0490E001968F779927809337
:10018000EA04FC01E659FB4F80818093360105C0EB
:10019000809131018F7D80933101FF91EF919F918B
:1001A0008F910F900BBE0F900FBE0F901F90189560
:1001B0001F920F920FB60F9211240BB60F922F932E
:1001C0003F934F935F938F939F93EF93FF93209170
:1001D00030013091360128718091690490E00196D8
:1001E0008F7799274091680450E08417950739F07C
:1001F00080936904FC01E851FC4F308301C022E088
:100200002093E703FF91EF919F918F915F914F9121
:100210003F912F910F900BBE0F900FBE0F901F902C
:1002200018951F920F920FB60F9211240BB60F92D2
:100230008F939F93EF93FF939091E6038091E50353
:10024000981779F08091E50390E001968F779927D0
:100250008093E503FC01EB59FC4F80818093C6003D
:1002600005C08091C1008F7D8093C100FF91EF9107
:100270009F918F910F900BBE0F900FBE0F901F900C
:1002800018951F920F920FB60F9211240BB60F9272
:100290002F933F934F935F938F939F93EF93FF938E
:1002A0002091C0003091C60028718091640390E0D5
:1002B00001968F7799274091630350E08417950743
:1002C00039F080936403FC01ED51FD4F308301C090
:1002D00022E02093E202FF91EF919F918F915F9135
:1002E0004F913F912F910F900BBE0F900FBE0F902B
:1002F0001F901895CF93DF931F921F92CDB7DEB753
:100300000B9A1092350187E6809334018091300179
:100310008D7F8093300186E08093320188E0809366
:10032000310180E092E09093F5048093F40429E198
:1003300032E03F932F9322E232E03F932F9329EA5A
:1003400032E03F932F932EE232E03F932F939F931F
:100350008F930E947E048BE492E09F938F9384E5B9
:1003600092E09F938F938091F5048F938091F40492
:100370008F930E947E0481E090E00E945A028C01DB
:100380000FB6F894DEBF0FBECDBF892B51F42AE61D
:1003900032E04CE150E060E772E084E192E00E94DC
:1003A000230284E6E82EF12C90E9C92EDD24D394B3
:1003B000CE0101964C012BE7A22E22E0B22E139A19
:1003C00088EE93E0F6013197F1F70197D9F7B7017D
:1003D000C8010E9487038C018091EC049091ED0488
:1003E000009711F486EF94E09401281B390BC901A2
:1003F0009F932F93BF92AF928091F5048F9380913A
:10040000F4048F930E947E040F900F900F900F9032
:100410000F900F900115110551F42AE632E04CE2DD
:1004200050E060E772E084E192E00E9423021398BA
:1004300088EE93E0F6013197F1F70197D9F734E6AA
:10044000E30EF11CBCCFF091F504E091F4040097A9
:10045000B9F45F934F937F936F933F932F938FE7FD
:1004600092E09F938F93FF93EF930E947E048DB74A
:100470009EB70A960FB6F8949EBF0FBE8DBF18C0E8
:100480005F934F937F936F939F938F933F932F939C
:100490008AEA92E09F938F93FF93EF930E947E04EA
:1004A0008DB79EB70C960FB6F8949EBF0FBE8DBF4A
:1004B0000E947004CF93DF938230910510F482E0A4
:1004C00090E0E091EE04F091EF0420E030E0C0E035
:1004D000D0E0309711F14081518148175907C0F0A1
:1004E0004817590761F482819381209719F09B8303
:1004F0008A832BC09093EF048093EE0426C02115CD
:10050000310519F04217530718F49A01BE01DF01B3
:10051000EF010280F381E02DDCCF2115310509F1D7
:10052000281B390B2430310590F412968D919C9143
:1005300013976115710521F0FB019383828304C039
:100540009093EF048093EE04FD01329644C0FD01C8
:10055000E20FF31F81939193225031092D933C9325
:100560003AC02091EC043091ED04232B41F420910A
:100570001002309111023093ED042093EC0420918D
:100580000E0230910F022115310541F42DB73EB70F
:100590004091120250911302241B350BE091EC04A0
:1005A000F091ED04E217F307A0F42E1B3F0B281780
:1005B000390778F0AC014E5F5F4F2417350748F0DC
:1005C0004E0F5F1F5093ED044093EC048193919381
:1005D00002C0E0E0F0E0CF01DF91CF9108950F93EA
:1005E0001F93CF93DF93009709F48CC0FC013297DF
:1005F000138212820091EE041091EF04011511058F
:1006000081F420813181820F931F2091EC0430917D
:10061000ED042817390779F5F093ED04E093EC0425
:1006200071C0D80140E050E0AE17BF0750F41296F9
:100630002D913C911397AD012115310509F1D90197
:10064000F3CF9D01DA013383228360817181860FAC
:10065000971F8217930769F4EC0128813981260FCF
:10066000371F2E5F3F4F318320838A819B81938385
:100670008283452B29F4F093EF04E093EE0442C00B
:100680001396FC93EE931297ED01499159919E01B7
:10069000240F351FE217F30771F480819181840FD5
:1006A000951F029611969C938E9382819381139647
:1006B0009C938E931297E0E0F0E0D80112968D9112
:1006C0009C911397009719F0F8018C01F6CF8D914A
:1006D0009C9198012E5F3F4F820F931F2091EC0455
:1006E0003091ED042817390769F4309729F41092F6
:1006F000EF041092EE0402C0138212821093ED04F4
:100700000093EC04DF91CF911F910F9108956F92A8
:100710007F928F929F92AF92BF92CF92DF92EF9291
:10072000FF920F931F93CF93DF93EC01009789F40F
:10073000CB01DF91CF911F910F91FF90EF90DF9050
:10074000CF90BF90AF909F908F907F906F900C94C0
:100750005A02FC01E60FF71F9C0122503109E217F3
:10076000F30708F4ACC0D9010D911C91119706173D
:100770001707B0F00530110508F49FC0C8010497B1
:100780008617970708F499C002501109061B170B2A
:10079000019311936D937C93CF010E94EF028DC062
:1007A0005B01A01AB10A4C01800E911EA091EE04CB
:1007B000B091EF0440E050E0E12CF12C109709F4E7
:1007C0004AC0A815B905D1F56D907C9011976301C9
:1007D00082E0C80ED11CCA14DB0480F1A3014A19BF
:1007E0005B096A0182E0C80ED11C1296BC90129778
:1007F0001396AC91B5E0CB16D10440F0B282A3833E
:1008000051834083D9016D937C930AC00E5F1F4FC3
:10081000C301800F911FF90191838083EB2DFA2F83
:10082000E114F10431F0D7011396FC93EE93129783
:1008300044C0F093EF04E093EE043FC08D919C918F
:1008400011974817590708F4AC017D0112960D90D5
:10085000BC91A02DB3CF8091EC049091ED0488154C
:100860009905E1F446175707C8F480910E0290915C
:100870000F02009741F48DB79EB74091120250913C
:100880001302841B950BE817F907C8F4F093ED04E5
:10089000E093EC04F901718360830FC0CB010E94E7
:1008A0005A027C01009759F0A801BE010E9475040C
:1008B000CE010E94EF02C70104C0CE0102C080E059
:1008C00090E0DF91CF911F910F91FF90EF90DF901B
:1008D000CF90BF90AF909F908F907F906F90089532
:1008E00081E090E0F8940C943507FB01DC0102C034
:1008F00001900D9241505040D8F70895CF93DF9367
:10090000CDB7DEB7AE01465F5F4F688579858E81D2
:100910009F810E948E04DF91CF9108952F923F9284
:100920004F925F926F927F928F929F92AF92BF92FF
:10093000CF92DF92EF92FF920F931F93CF93DF93AB
:10094000CDB7DEB72C970FB6F894DEBF0FBECDBF84
:100950007C016B018A01FC0117821682838181FF71
:10096000BDC1CE0101964C01F7019381F60193FDC3
:10097000859193FF81916F01882309F4ABC1853282
:1009800039F493FD859193FF81916F01853229F4AC
:10099000B70190E00E949F06E7CF512C312C20E058
:1009A0002032A0F48B3269F030F4803259F0833277
:1009B00069F420612CC08D3239F0803339F4216024
:1009C00026C02260246023C0286021C027FD27C0E4
:1009D00030ED380F3A3078F426FF06C0FAE05F9E1B
:1009E000300D1124532E13C08AE0389E300D11248F
:1009F000332E20620CC08E3221F426FD6BC12064A0
:100A000006C08C3611F4206802C0883641F4F60125
:100A100093FD859193FF81916F018111C1CF982F33
:100A20009F7D9554933028F40C5F1F4FFFE3F983AB
:100A30000DC0833631F0833771F0833509F05BC028
:100A400022C0F801808189830E5F1F4F44244394A4
:100A5000512C540115C03801F2E06F0E711CF801E1
:100A6000A080B18026FF03C0652D70E002C06FEF4B
:100A70007FEFC5012C870E9494062C0183012C85F1
:100A80002F77222E17C03801F2E06F0E711CF8018B
:100A9000A080B18026FF03C0652D70E002C06FEF1B
:100AA0007FEFC5012C870E9489062C012C852068C8
:100AB000222E830123FC1BC0832D90E0481659068B
:100AC000B0F4B70180E290E00E949F063A94F4CF20
:100AD000F50127FC859127FE81915F01B70190E028
:100AE0000E949F0631103A94F1E04F1A51084114C8
:100AF000510471F7E5C0843611F0893639F5F801F3
:100B000027FF07C060817181828193810C5F1F4F35
:100B100008C060817181072E000C880B990B0E5F55
:100B20001F4F2F76722E97FF09C090958095709574
:100B300061957F4F8F4F9F4F2068722E2AE030E0E3
:100B4000A4010E94D706A82EA81844C0853729F40E
:100B50002F7EB22E2AE030E025C0F22FF97FBF2E83
:100B60008F36C1F018F4883579F0B4C0803719F0A9
:100B7000883721F0AFC02F2F2061B22EB4FE0DC0F8
:100B80008B2D8460B82E09C024FF0AC09F2F966069
:100B9000B92E06C028E030E005C020E130E002C0F8
:100BA00020E132E0F801B7FE07C0608171818281E7
:100BB00093810C5F1F4F06C06081718180E090E0DF
:100BC0000E5F1F4FA4010E94D706A82EA818FB2D68
:100BD000FF777F2E76FE0BC0372D3E7FA51450F495
:100BE00074FE0AC072FC08C0372D3E7E05C0BA2CC8
:100BF000372D03C0BA2C01C0B52C34FF0DC0FE0147
:100C0000EA0DF11D8081803311F4397E09C032FF75
:100C100006C0B394B39404C0832F867809F0B394CC
:100C200033FD13C030FF06C05A2CB31418F4530C14
:100C30005B18B32CB31468F4B70180E290E03C87F2
:100C40000E949F06B3943C85F5CFB31410F43B1873
:100C500001C0312C34FF12C0B70180E390E03C8723
:100C60000E949F063C8532FF17C031FD03C088E714
:100C700090E002C088E590E0B7010CC0832F867831
:100C800059F031FF02C08BE201C080E237FD8DE2F6
:100C9000B70190E00E949F06A51438F4B70180E3E5
:100CA00090E00E949F065A94F7CFAA94F401EA0DAF
:100CB000F11D8081B70190E00E949F06A110F5CF41
:100CC000332009F451CEB70180E290E00E949F06E4
:100CD0003A94F6CFF7018681978102C08FEF9FEF9C
:100CE0002C960FB6F894DEBF0FBECDBFDF91CF912B
:100CF0001F910F91FF90EF90DF90CF90BF90AF903A
:100D00009F908F907F906F905F904F903F902F902B
:100D10000895FC010590615070400110D8F780954E
:100D200090958E0F9F1F0895FC01615070400190B7
:100D30000110D8F7809590958E0F9F1F08950F93FF
:100D40001F93CF93DF93FB01238121FD03C08FEF1E
:100D50009FEF28C022FF16C046815781248135812C
:100D60004217530744F4A081B1819D012F5F3F4F8B
:100D7000318320838C93268137812F5F3F4F3783C8
:100D8000268310C0EB01092F182F0084F185E02D78
:100D90001995892BE1F68E819F8101969F838E8321
:100DA000812F902FDF91CF911F910F910895FA011C
:100DB000AA27283051F1203181F1E8946F936E7F9A
:100DC0006E5F7F4F8F4F9F4FAF4FB1E03ED0B4E08B
:100DD0003CD0670F781F891F9A1FA11D680F791FCC
:100DE0008A1F911DA11D6A0F711D811D911DA11DDD
:100DF00020D009F468943F912AE0269F11243019ED
:100E0000305D3193DEF6CF010895462F4770405D87
:100E10004193B3E00FD0C9F7F6CF462F4F70405D36
:100E20004A3318F0495D31FD4052419302D0A9F791
:100E3000EACFB4E0A6959795879577956795BA958B
:100E4000C9F700976105710508959B01AC010A2E51
:100E500006945795479537952795BA95C9F7620F28
:0E0E6000731F841F951FA01D0895F894FFCFE7
:100E6E0000000003000000009700000000000000DA
:100E7E00F60420006D61696E0031383A32363A322E
:100E8E0032004E6F762032312032303136005665C8
:100E9E007273696F6E3A202573206275696C7420C7
:100EAE006F6E3A2025732025730A00312E382E30AE
:100EBE0073766E006176722D6C6962632076657250
:100ECE0073696F6E3A2025730A0061727261790040
:100EDE007372632F6D61696E2E630025642000416D
:100EEE007373657274696F6E206661696C65643ABE
:100EFE0020282573292C2066696C652025732C20EB
:100F0E006C696E652025642E0A00417373657274D8
:100F1E00696F6E206661696C65643A2028257329B5
:100F2E002C2066756E6374696F6E2025732C206697
:100F3E00696C652025732C206C696E652025642EE6
:020F4E000A0097
:00000001FF
